:100000000C942A000C943C000C943C000C943C0092
:100010000C943C000C943C000C943C000C943C0070
:100020000C943C000C943C000C9432060C94FF059C
:100030000C943C000C943C000C943C000C943C0050
:100040000C943C000C943C000C943C000C943C0040
:100050000C943C0011241FBECFE5D8E0DEBFCDBF1D
:1000600010E0A0E6B0E001C01D92A737B107E1F7AC
:100070000E9470060C94B9060C940000DF93CF9395
:10008000CDB7DEB7EAE3F0E086E08083E7E3F0E0B7
:100090008FE08083E4E3F0E08FEF8083E1E3F0E042
:1000A00082E28083EBE3F0E01082E8E3F0E010828C
:1000B000E5E3F0E01082E2E3F0E01082CF91DF911F
:1000C0000895DF93CF93CDB7DEB72D970FB6F89491
:1000D000DEBF0FBECDBF89836A834B838981282F02
:1000E00030E03D872C878C859D858130910509F412
:1000F0004FC02C853D85223031052CF48C859D85A3
:10010000009771F0ECC02C853D852230310509F453
:1001100077C08C859D858330910509F4A9C0DFC027
:100120008B81282F30E03B872A878A859B85009723
:1001300031F02A853B8521303105B1F0D0C0AAE3EA
:10014000B0E0EAE3F0E08081482F8A81282F30E098
:1001500081E090E0022E02C0880F991F0A94E2F716
:10016000809584238C93BBC0AAE3B0E0EAE3F0E07F
:100170008081482F8A81282F30E081E090E0022E94
:1001800002C0880F991F0A94E2F7842B8C93A7C0B2
:100190008B81282F30E039872887888599850097BB
:1001A00031F02885398521303105B1F098C0A7E3B9
:1001B000B0E0E7E3F0E08081482F8A81282F30E02B
:1001C00081E090E0022E02C0880F991F0A94E2F7A6
:1001D000809584238C9383C0A7E3B0E0E7E3F0E04D
:1001E0008081482F8A81282F30E081E090E0022E24
:1001F00002C0880F991F0A94E2F7842B8C936FC07A
:100200008B81282F30E03F832E838E819F81009742
:1002100031F02E813F8121303105B1F060C0A4E37F
:10022000B0E0E4E3F0E08081482F8A81282F30E0BD
:1002300081E090E0022E02C0880F991F0A94E2F735
:10024000809584238C934BC0A4E3B0E0E4E3F0E01A
:100250008081482F8A81282F30E081E090E0022EB3
:1002600002C0880F991F0A94E2F7842B8C9337C041
:100270008B81282F30E03D832C838C819D810097DA
:1002800031F02C813D8121303105B1F028C0A1E34E
:10029000B0E0E1E3F0E08081482F8A81282F30E050
:1002A00081E090E0022E02C0880F991F0A94E2F7C5
:1002B000809584238C9313C0A1E3B0E0E1E3F0E0E8
:1002C0008081482F8A81282F30E081E090E0022E43
:1002D00002C0880F991F0A94E2F7842B8C932D9605
:1002E0000FB6F894DEBF0FBECDBFCF91DF9108955A
:1002F000DF93CF93CDB7DEB72D970FB6F894DEBF5F
:100300000FBECDBF89836A834B838981282F30E05C
:100310003D872C878C859D858130910509F44FC0E0
:100320002C853D85223031052CF48C859D850097E8
:1003300071F0EBC02C853D852230310509F477C082
:100340008C859D858330910509F4A9C0DEC08B8121
:10035000282F30E03B872A878A859B850097D1F03C
:100360002A853B852130310509F0CFC0ABE3B0E0F1
:10037000EBE3F0E08081482F8A81282F30E081E094
:1003800090E0022E02C0880F991F0A94E2F7842B96
:100390008C93BBC0ABE3B0E0EBE3F0E08081482F8F
:1003A0008A81282F30E081E090E0022E02C0880F81
:1003B000991F0A94E2F7809584238C93A6C08B81C1
:1003C000282F30E039872887888599850097D1F0D4
:1003D000288539852130310509F097C0A8E3B0E0C0
:1003E000E8E3F0E08081482F8A81282F30E081E027
:1003F00090E0022E02C0880F991F0A94E2F7842B26
:100400008C9383C0A8E3B0E0E8E3F0E08081482F5C
:100410008A81282F30E081E090E0022E02C0880F10
:10042000991F0A94E2F7809584238C936EC08B8188
:10043000282F30E03F832E838E819F810097D1F05B
:100440002E813F812130310509F05FC0A5E3B0E086
:10045000E5E3F0E08081482F8A81282F30E081E0B9
:1004600090E0022E02C0880F991F0A94E2F7842BB5
:100470008C934BC0A5E3B0E0E5E3F0E08081482F2A
:100480008A81282F30E081E090E0022E02C0880FA0
:10049000991F0A94E2F7809584238C9336C08B8150
:1004A000282F30E03D832C838C819D810097C9F0FB
:1004B0002C813D812130310541F5A2E3B0E0E2E33A
:1004C000F0E08081482F8A81282F30E081E090E0A1
:1004D000022E02C0880F991F0A94E2F7842B8C9396
:1004E00014C0A2E3B0E0E2E3F0E08081482F8A810B
:1004F000282F30E081E090E0022E02C0880F991F83
:100500000A94E2F7809584238C932D960FB6F89485
:10051000DEBF0FBECDBFCF91DF910895DF93CF93A4
:1005200000D000D0CDB7DEB789836A838981282FB8
:1005300030E03C832B838B819C8181309105D1F00D
:100540002B813C81223031052CF48B819C810097DA
:1005500061F01EC02B813C812230310581F08B81FE
:100560009C818330910581F013C0EAE3F0E08A8139
:1005700080830EC0E7E3F0E08A81808309C0E4E372
:10058000F0E08A81808304C0E1E3F0E08A81808327
:100590000F900F900F900F90CF91DF910895DF9300
:1005A000CF9300D000D0CDB7DEB789836A8389812D
:1005B000282F30E03C832B838B819C8181309105F7
:1005C000D1F02B813C81223031052CF48B819C8130
:1005D000009761F01EC02B813C812230310581F0F3
:1005E0008B819C818330910581F013C0EBE3F0E0B7
:1005F0008A8180830EC0E8E3F0E08A81808309C0AD
:10060000E5E3F0E08A81808304C0E2E3F0E08A81E0
:1006100080830F900F900F900F90CF91DF910895EE
:10062000DF93CF9300D000D00F92CDB7DEB78A838F
:100630006B838FEF89838A81282F30E03D832C8361
:100640004C815D814130510541F18C819D81823029
:10065000910534F42C813D812115310561F052C0A2
:100660004C815D814230510551F18C819D818330F7
:100670009105B9F147C0E9E3F0E08081282F30E02F
:100680008B81882F90E0A90102C0559547958A95E6
:10069000E2F7CA018170898335C0E6E3F0E080812A
:1006A000282F30E08B81882F90E0A90102C055955A
:1006B00047958A95E2F7CA018170898323C0E3E3F5
:1006C000F0E08081282F30E08B81882F90E0A90115
:1006D00002C0559547958A95E2F7CA0181708983D2
:1006E00011C0E0E3F0E08081282F30E08B81882F7B
:1006F00090E0A90102C0559547958A95E2F7CA0195
:100700008170898389810F900F900F900F900F90C7
:10071000CF91DF910895DF93CF9300D000D0CDB774
:10072000DEB789836A838981282F30E03C832B835D
:100730008B819C818130910549F12B813C81223054
:1007400031052CF48B819C81009761F05AC02B817C
:100750003C812230310571F18B819C818330910580
:10076000E9F14FC0ABE3B0E0EBE3F0E08081482F6C
:100770008A81282F30E081E090E0022E02C0880FAD
:10078000991F0A94E2F784278C933BC0A8E3B0E05A
:10079000E8E3F0E08081482F8A81282F30E081E073
:1007A00090E0022E02C0880F991F0A94E2F7842776
:1007B0008C9327C0A5E3B0E0E5E3F0E08081482F0B
:1007C0008A81282F30E081E090E0022E02C0880F5D
:1007D000991F0A94E2F784278C9313C0A2E3B0E038
:1007E000E2E3F0E08081482F8A81282F30E081E029
:1007F00090E0022E02C0880F991F0A94E2F7842726
:100800008C930F900F900F900F90CF91DF910895E0
:10081000DF93CF93CDB7DEB7AFE5B0E0EFE5F0E023
:10082000808180688C93CF91DF910895DF93CF937F
:10083000CDB7DEB7AFE5B0E0EFE5F0E080818F77D0
:100840008C93CF91DF910895DF93CF9300D0CDB7F4
:10085000DEB789836A8389816A8141E00E947801D9
:100860000F900F90CF91DF910895DF93CF9300D039
:10087000CDB7DEB789836A8389816A8140E00E94AF
:1008800078010F900F90CF91DF910895DF93CF9370
:1008900000D00F92CDB7DEB789836A834B838981FD
:1008A0006A814B810E9478010F900F900F90CF9139
:1008B000DF910895DF93CF9300D0CDB7DEB7898362
:1008C0006A8389816A810E948B030F900F90CF9178
:1008D000DF910895DF93CF93CDB7DEB78DEE94E02F
:1008E0000E94DB050E947405CF91DF910895DF938C
:1008F000CF930F92CDB7DEB71982198212C08981CA
:10090000282F30E0C901880F991F820F931F880F8D
:10091000991FFC01E759FF4F1182108289818F5F77
:1009200089838981833058F30F90CF91DF910895A7
:10093000DF93CF93CDB7DEB727970FB6F894DEBF1E
:100940000FBECDBF89837B836A835D834C833F83E6
:100950002E8389818330C0F58E819F810097A1F11C
:100960008981282F30E0C901880F991F820F931FBA
:10097000880F991FFC01EB59FF4F8C819D8191835A
:1009800080838981282F30E0C901880F991F820F49
:10099000931F0196880F991FFC01EB59FF4F8A8125
:1009A0009B81918380838981282F30E0C901880F42
:1009B000991F820F931F880F991FFC01E759FF4F62
:1009C0008E819F819183808327960FB6F894DEBF36
:1009D0000FBECDBFCF91DF910895DF93CF930F92DC
:1009E000CDB7DEB7198278C08981282F30E0C901E0
:1009F000880F991F820F931F880F991FFC01EB59D5
:100A0000FF4F80819181009709F045C08981282F8F
:100A100030E0C901880F991F820F931F880F991F1B
:100A2000FC01E759FF4F80819181009789F089810E
:100A3000282F30E0C901880F991F820F931F880F5C
:100A4000991FFC01E759FF4F0190F081E02D0995B6
:100A50008981482F50E08981282F30E0C901880F13
:100A6000991F820F931F0196880F991FFC01EB5964
:100A7000FF4F808191819C0121503040CA01880F35
:100A8000991F840F951F880F991FFC01EB59FF4F89
:100A9000318320831EC08981282F30E0C901880F4F
:100AA000991F820F931F880F991FFC01EB59FF4F6D
:100AB00080819181AC0141505040C901880F991F3C
:100AC000820F931F880F991FFC01EB59FF4F518331
:100AD000408389818F5F89838981833008F484CF43
:100AE0000F90CF91DF910895DF93CF93CDB7DEB70D
:100AF000A3E5B0E0E3E5F0E08081877F8C93A3E598
:100B0000B0E0E3E5F0E0808180648C93A9E5B0E09B
:100B1000E9E5F0E0808182608C93A9E5B0E0E9E549
:100B2000F0E080818E7F8C93ECE5F0E087EC8083B1
:100B3000A3E5B0E0E3E5F0E08081887C8C93A3E559
:100B4000B0E0E3E5F0E0808182608C93CF91DF91AB
:100B50000895DF93CF93CDB7DEB7A3E5B0E0E3E52B
:100B6000F0E08081887F8C93CF91DF910895DF93AF
:100B7000CF930F92CDB7DEB78983E2E5F0E08981AC
:100B800080830F90CF91DF910895DF93CF9300D0B2
:100B9000CDB7DEB79A83898389819A81009731F036
:100BA00089819A8190936100809360000F900F90EB
:100BB000CF91DF910895DF93CF9300D0CDB7DEB70B
:100BC0009A83898389819A81009731F089819A81FA
:100BD00090936300809362000F900F90CF91DF910C
:100BE0000895DF93CF930F92CDB7DEB78983ECE5FD
:100BF000F0E0898180830F90CF91DF9108951F925B
:100C00000F920FB60F9211242F933F934F935F9340
:100C10006F937F938F939F93AF93BF93EF93FF93C4
:100C2000DF93CF93CDB7DEB78091600090916100E4
:100C3000009729F0E0916000F09161000995CF9153
:100C4000DF91FF91EF91BF91AF919F918F917F9134
:100C50006F915F914F913F912F910F900FBE0F9029
:100C60001F9018951F920F920FB60F9211242F9379
:100C70003F934F935F936F937F938F939F93AF9324
:100C8000BF93EF93FF93DF93CF93CDB7DEB7809100
:100C900064008F5F8093640080916400853069F404
:100CA000109264008091620090916300009729F097
:100CB000E0916200F09163000995CF91DF91FF917F
:100CC000EF91BF91AF919F918F917F916F915F91C4
:100CD0004F913F912F910F900FBE0F901F9018953D
:100CE000DF93CF93CDB7DEB70E943E000E94080489
:100CF0000E94770428E936E080E068EE73E040E087
:100D000050E00E94980423EA36E081E060ED77E04D
:100D100040E050E00E9498042EEA36E082E068E865
:100D200073E140E050E00E9498040E946A04FFCF03
:100D3000DF93CF93CDB7DEB780E060E00E945A0426
:100D4000CF91DF910895DF93CF93CDB7DEB780E0E9
:100D500061E00E945A04CF91DF910895DF93CF9311
:100D6000CDB7DEB780E062E00E945A04CF91DF91F8
:060D70000895F894FFCF86
:00000001FF
